{
    "_format": "hh-sol-artifact-1",
    "contractName": "BillMyCrypto",
    "sourceName": "contracts/Billmycrypto.sol",
    "abi": [
        {
            "inputs": [],
            "stateMutability": "nonpayable",
            "type": "constructor"
        },
        {
            "inputs": [
                {
                    "internalType": "address",
                    "name": "owner",
                    "type": "address"
                }
            ],
            "name": "OwnableInvalidOwner",
            "type": "error"
        },
        {
            "inputs": [
                {
                    "internalType": "address",
                    "name": "account",
                    "type": "address"
                }
            ],
            "name": "OwnableUnauthorizedAccount",
            "type": "error"
        },
        {
            "anonymous": false,
            "inputs": [
                {
                    "indexed": true,
                    "internalType": "uint256",
                    "name": "transactionId",
                    "type": "uint256"
                },
                {
                    "indexed": true,
                    "internalType": "address",
                    "name": "user",
                    "type": "address"
                },
                {
                    "indexed": false,
                    "internalType": "uint256",
                    "name": "amountUSDC",
                    "type": "uint256"
                },
                {
                    "indexed": false,
                    "internalType": "string",
                    "name": "status",
                    "type": "string"
                }
            ],
            "name": "BillConfirmed",
            "type": "event"
        },
        {
            "anonymous": false,
            "inputs": [
                {
                    "indexed": true,
                    "internalType": "address",
                    "name": "user",
                    "type": "address"
                },
                {
                    "indexed": false,
                    "internalType": "uint256",
                    "name": "amountUSDC",
                    "type": "uint256"
                },
                {
                    "indexed": false,
                    "internalType": "uint256",
                    "name": "feeUSDC",
                    "type": "uint256"
                },
                {
                    "indexed": false,
                    "internalType": "uint256",
                    "name": "totalUSDC",
                    "type": "uint256"
                },
                {
                    "indexed": false,
                    "internalType": "uint256",
                    "name": "transactionId",
                    "type": "uint256"
                }
            ],
            "name": "BillPaid",
            "type": "event"
        },
        {
            "anonymous": false,
            "inputs": [
                {
                    "indexed": true,
                    "internalType": "address",
                    "name": "previousOwner",
                    "type": "address"
                },
                {
                    "indexed": true,
                    "internalType": "address",
                    "name": "newOwner",
                    "type": "address"
                }
            ],
            "name": "OwnershipTransferred",
            "type": "event"
        },
        {
            "inputs": [
                {
                    "internalType": "uint256",
                    "name": "transactionId",
                    "type": "uint256"
                }
            ],
            "name": "confirmBillPayment",
            "outputs": [],
            "stateMutability": "nonpayable",
            "type": "function"
        },
        {
            "inputs": [],
            "name": "owner",
            "outputs": [
                {
                    "internalType": "address",
                    "name": "",
                    "type": "address"
                }
            ],
            "stateMutability": "view",
            "type": "function"
        },
        {
            "inputs": [
                {
                    "internalType": "uint256",
                    "name": "amount",
                    "type": "uint256"
                }
            ],
            "name": "payBill",
            "outputs": [],
            "stateMutability": "nonpayable",
            "type": "function"
        },
        {
            "inputs": [],
            "name": "platformFeePercent",
            "outputs": [
                {
                    "internalType": "uint256",
                    "name": "",
                    "type": "uint256"
                }
            ],
            "stateMutability": "view",
            "type": "function"
        },
        {
            "inputs": [],
            "name": "platformWallet",
            "outputs": [
                {
                    "internalType": "address",
                    "name": "",
                    "type": "address"
                }
            ],
            "stateMutability": "view",
            "type": "function"
        },
        {
            "inputs": [],
            "name": "renounceOwnership",
            "outputs": [],
            "stateMutability": "nonpayable",
            "type": "function"
        },
        {
            "inputs": [],
            "name": "transactionCount",
            "outputs": [
                {
                    "internalType": "uint256",
                    "name": "",
                    "type": "uint256"
                }
            ],
            "stateMutability": "view",
            "type": "function"
        },
        {
            "inputs": [
                {
                    "internalType": "uint256",
                    "name": "",
                    "type": "uint256"
                }
            ],
            "name": "transactions",
            "outputs": [
                {
                    "internalType": "address",
                    "name": "user",
                    "type": "address"
                },
                {
                    "internalType": "uint256",
                    "name": "amountUSDC",
                    "type": "uint256"
                },
                {
                    "internalType": "uint256",
                    "name": "feeUSDC",
                    "type": "uint256"
                },
                {
                    "internalType": "bool",
                    "name": "isPaid",
                    "type": "bool"
                }
            ],
            "stateMutability": "view",
            "type": "function"
        },
        {
            "inputs": [
                {
                    "internalType": "address",
                    "name": "newOwner",
                    "type": "address"
                }
            ],
            "name": "transferOwnership",
            "outputs": [],
            "stateMutability": "nonpayable",
            "type": "function"
        },
        {
            "inputs": [
                {
                    "internalType": "uint256",
                    "name": "newFee",
                    "type": "uint256"
                }
            ],
            "name": "updatePlatformFee",
            "outputs": [],
            "stateMutability": "nonpayable",
            "type": "function"
        },
        {
            "inputs": [
                {
                    "internalType": "address",
                    "name": "newWallet",
                    "type": "address"
                }
            ],
            "name": "updatePlatformWallet",
            "outputs": [],
            "stateMutability": "nonpayable",
            "type": "function"
        },
        {
            "inputs": [],
            "name": "usdc",
            "outputs": [
                {
                    "internalType": "contract IERC20",
                    "name": "",
                    "type": "address"
                }
            ],
            "stateMutability": "view",
            "type": "function"
        }
    ],
    "bytecode": "0x6080604052600260035534801561001557600080fd5b5033600073ffffffffffffffffffffffffffffffffffffffff168173ffffffffffffffffffffffffffffffffffffffff16036100895760006040517f1e4fbdf7000000000000000000000000000000000000000000000000000000008152600401610080919061024d565b60405180910390fd5b6100988161014860201b60201c565b50732791bca1f2de4661ed88a30c99a7a9449aa84174600160006101000a81548173ffffffffffffffffffffffffffffffffffffffff021916908373ffffffffffffffffffffffffffffffffffffffff16021790555073ddb788a73ea47b5daa8763e843f237d6d56ed1e3600260006101000a81548173ffffffffffffffffffffffffffffffffffffffff021916908373ffffffffffffffffffffffffffffffffffffffff160217905550610268565b60008060009054906101000a900473ffffffffffffffffffffffffffffffffffffffff169050816000806101000a81548173ffffffffffffffffffffffffffffffffffffffff021916908373ffffffffffffffffffffffffffffffffffffffff1602179055508173ffffffffffffffffffffffffffffffffffffffff168173ffffffffffffffffffffffffffffffffffffffff167f8be0079c531659141344cd1fd0a4f28419497f9722a3daafe3b4186f6b6457e060405160405180910390a35050565b600073ffffffffffffffffffffffffffffffffffffffff82169050919050565b60006102378261020c565b9050919050565b6102478161022c565b82525050565b6000602082019050610262600083018461023e565b92915050565b610f77806102776000396000f3fe608060405234801561001057600080fd5b50600436106100b45760003560e01c8063ada4ef3011610071578063ada4ef301461016c578063b6f3936414610188578063b77bf600146101a4578063f0975190146101c2578063f2fde38b146101de578063fa2af9da146101fa576100b4565b80633e413bee146100b9578063715018a6146100d75780638c639a85146100e15780638da5cb5b146100ff5780639ace38c21461011d578063aa0b598814610150575b600080fd5b6100c1610218565b6040516100ce91906109ae565b60405180910390f35b6100df61023e565b005b6100e9610252565b6040516100f691906109e2565b60405180910390f35b610107610258565b6040516101149190610a1e565b60405180910390f35b61013760048036038101906101329190610a6a565b610281565b6040516101479493929190610ab2565b60405180910390f35b61016a60048036038101906101659190610a6a565b6102de565b005b61018660048036038101906101819190610b23565b610334565b005b6101a2600480360381019061019d9190610a6a565b610380565b005b6101ac6104b9565b6040516101b991906109e2565b60405180910390f35b6101dc60048036038101906101d79190610a6a565b6104bf565b005b6101f860048036038101906101f39190610b23565b610730565b005b6102026107b6565b60405161020f9190610a1e565b60405180910390f35b600160009054906101000a900473ffffffffffffffffffffffffffffffffffffffff1681565b6102466107dc565b6102506000610863565b565b60035481565b60008060009054906101000a900473ffffffffffffffffffffffffffffffffffffffff16905090565b60046020528060005260406000206000915090508060000160009054906101000a900473ffffffffffffffffffffffffffffffffffffffff16908060010154908060020154908060030160009054906101000a900460ff16905084565b6102e66107dc565b600581111561032a576040517f08c379a000000000000000000000000000000000000000000000000000000000815260040161032190610bad565b60405180910390fd5b8060038190555050565b61033c6107dc565b80600260006101000a81548173ffffffffffffffffffffffffffffffffffffffff021916908373ffffffffffffffffffffffffffffffffffffffff16021790555050565b6103886107dc565b6004600082815260200190815260200160002060030160009054906101000a900460ff16156103ec576040517f08c379a00000000000000000000000000000000000000000000000000000000081526004016103e390610c19565b60405180910390fd5b60016004600083815260200190815260200160002060030160006101000a81548160ff0219169083151502179055506004600082815260200190815260200160002060000160009054906101000a900473ffffffffffffffffffffffffffffffffffffffff1673ffffffffffffffffffffffffffffffffffffffff16817f4c338b4576c49de66c1d35d22a5d1723e406795268068c11ed78f2d518fe13e960046000858152602001908152602001600020600101546040516104ae9190610c85565b60405180910390a350565b60055481565b60006064600354836104d19190610ce2565b6104db9190610d53565b9050600081836104eb9190610d84565b9050600160009054906101000a900473ffffffffffffffffffffffffffffffffffffffff1673ffffffffffffffffffffffffffffffffffffffff166323b872dd33600260009054906101000a900473ffffffffffffffffffffffffffffffffffffffff16846040518463ffffffff1660e01b815260040161056e93929190610db8565b6020604051808303816000875af115801561058d573d6000803e3d6000fd5b505050506040513d601f19601f820116820180604052508101906105b19190610e1b565b6105f0576040517f08c379a00000000000000000000000000000000000000000000000000000000081526004016105e790610e94565b60405180910390fd5b60405180608001604052803373ffffffffffffffffffffffffffffffffffffffff1681526020018481526020018381526020016000151581525060046000600554815260200190815260200160002060008201518160000160006101000a81548173ffffffffffffffffffffffffffffffffffffffff021916908373ffffffffffffffffffffffffffffffffffffffff160217905550602082015181600101556040820151816002015560608201518160030160006101000a81548160ff0219169083151502179055509050503373ffffffffffffffffffffffffffffffffffffffff167f939b27071b25a44ff13892faa27df551a2614b01487758ea66b003d791db456684848460055460405161070b9493929190610eb4565b60405180910390a26005600081548092919061072690610ef9565b9190505550505050565b6107386107dc565b600073ffffffffffffffffffffffffffffffffffffffff168173ffffffffffffffffffffffffffffffffffffffff16036107aa5760006040517f1e4fbdf70000000000000000000000000000000000000000000000000000000081526004016107a19190610a1e565b60405180910390fd5b6107b381610863565b50565b600260009054906101000a900473ffffffffffffffffffffffffffffffffffffffff1681565b6107e4610927565b73ffffffffffffffffffffffffffffffffffffffff16610802610258565b73ffffffffffffffffffffffffffffffffffffffff161461086157610825610927565b6040517f118cdaa70000000000000000000000000000000000000000000000000000000081526004016108589190610a1e565b60405180910390fd5b565b60008060009054906101000a900473ffffffffffffffffffffffffffffffffffffffff169050816000806101000a81548173ffffffffffffffffffffffffffffffffffffffff021916908373ffffffffffffffffffffffffffffffffffffffff1602179055508173ffffffffffffffffffffffffffffffffffffffff168173ffffffffffffffffffffffffffffffffffffffff167f8be0079c531659141344cd1fd0a4f28419497f9722a3daafe3b4186f6b6457e060405160405180910390a35050565b600033905090565b600073ffffffffffffffffffffffffffffffffffffffff82169050919050565b6000819050919050565b600061097461096f61096a8461092f565b61094f565b61092f565b9050919050565b600061098682610959565b9050919050565b60006109988261097b565b9050919050565b6109a88161098d565b82525050565b60006020820190506109c3600083018461099f565b92915050565b6000819050919050565b6109dc816109c9565b82525050565b60006020820190506109f760008301846109d3565b92915050565b6000610a088261092f565b9050919050565b610a18816109fd565b82525050565b6000602082019050610a336000830184610a0f565b92915050565b600080fd5b610a47816109c9565b8114610a5257600080fd5b50565b600081359050610a6481610a3e565b92915050565b600060208284031215610a8057610a7f610a39565b5b6000610a8e84828501610a55565b91505092915050565b60008115159050919050565b610aac81610a97565b82525050565b6000608082019050610ac76000830187610a0f565b610ad460208301866109d3565b610ae160408301856109d3565b610aee6060830184610aa3565b95945050505050565b610b00816109fd565b8114610b0b57600080fd5b50565b600081359050610b1d81610af7565b92915050565b600060208284031215610b3957610b38610a39565b5b6000610b4784828501610b0e565b91505092915050565b600082825260208201905092915050565b7f46656520746f6f20686967680000000000000000000000000000000000000000600082015250565b6000610b97600c83610b50565b9150610ba282610b61565b602082019050919050565b60006020820190508181036000830152610bc681610b8a565b9050919050565b7f416c726561647920636f6e6669726d6564000000000000000000000000000000600082015250565b6000610c03601183610b50565b9150610c0e82610bcd565b602082019050919050565b60006020820190508181036000830152610c3281610bf6565b9050919050565b7f5061696400000000000000000000000000000000000000000000000000000000600082015250565b6000610c6f600483610b50565b9150610c7a82610c39565b602082019050919050565b6000604082019050610c9a60008301846109d3565b8181036020830152610cab81610c62565b905092915050565b7f4e487b7100000000000000000000000000000000000000000000000000000000600052601160045260246000fd5b6000610ced826109c9565b9150610cf8836109c9565b9250828202610d06816109c9565b91508282048414831517610d1d57610d1c610cb3565b5b5092915050565b7f4e487b7100000000000000000000000000000000000000000000000000000000600052601260045260246000fd5b6000610d5e826109c9565b9150610d69836109c9565b925082610d7957610d78610d24565b5b828204905092915050565b6000610d8f826109c9565b9150610d9a836109c9565b9250828201905080821115610db257610db1610cb3565b5b92915050565b6000606082019050610dcd6000830186610a0f565b610dda6020830185610a0f565b610de760408301846109d3565b949350505050565b610df881610a97565b8114610e0357600080fd5b50565b600081519050610e1581610def565b92915050565b600060208284031215610e3157610e30610a39565b5b6000610e3f84828501610e06565b91505092915050565b7f55534443205472616e73666572204661696c6564000000000000000000000000600082015250565b6000610e7e601483610b50565b9150610e8982610e48565b602082019050919050565b60006020820190508181036000830152610ead81610e71565b9050919050565b6000608082019050610ec960008301876109d3565b610ed660208301866109d3565b610ee360408301856109d3565b610ef060608301846109d3565b95945050505050565b6000610f04826109c9565b91507fffffffffffffffffffffffffffffffffffffffffffffffffffffffffffffffff8203610f3657610f35610cb3565b5b60018201905091905056fea26469706673582212202a4c6f1193406c5e493e06af855f558de574d7d9d11647336ad71297f1d32cf464736f6c634300081c0033",
    "linkReferences": {},
    "deployedLinkReferences": {}
}