{
    "_format": "hh-sol-artifact-1",
    "contractName": "Transactions",
    "sourceName": "contracts/Transactions.sol",
    "abi": [
        {
            "anonymous": false,
            "inputs": [
                {
                    "indexed": false,
                    "internalType": "address",
                    "name": "from",
                    "type": "address"
                },
                {
                    "indexed": false,
                    "internalType": "address",
                    "name": "receiver",
                    "type": "address"
                },
                {
                    "indexed": false,
                    "internalType": "uint256",
                    "name": "amount",
                    "type": "uint256"
                },
                {
                    "indexed": false,
                    "internalType": "string",
                    "name": "message",
                    "type": "string"
                },
                {
                    "indexed": false,
                    "internalType": "uint256",
                    "name": "timestamp",
                    "type": "uint256"
                },
                {
                    "indexed": false,
                    "internalType": "string",
                    "name": "account",
                    "type": "string"
                },
                {
                    "indexed": false,
                    "internalType": "string",
                    "name": "keyword",
                    "type": "string"
                }
            ],
            "name": "Transfer",
            "type": "event"
        },
        {
            "inputs": [],
            "name": "getAllTransactions",
            "outputs": [
                {
                    "components": [
                        {
                            "internalType": "address",
                            "name": "sender",
                            "type": "address"
                        },
                        {
                            "internalType": "address",
                            "name": "receiver",
                            "type": "address"
                        },
                        {
                            "internalType": "uint256",
                            "name": "amount",
                            "type": "uint256"
                        },
                        {
                            "internalType": "string",
                            "name": "message",
                            "type": "string"
                        },
                        {
                            "internalType": "uint256",
                            "name": "timestamp",
                            "type": "uint256"
                        },
                        {
                            "internalType": "string",
                            "name": "account",
                            "type": "string"
                        },
                        {
                            "internalType": "string",
                            "name": "keyword",
                            "type": "string"
                        }
                    ],
                    "internalType": "struct Transactions.TransferStruct[]",
                    "name": "",
                    "type": "tuple[]"
                }
            ],
            "stateMutability": "view",
            "type": "function"
        },
        {
            "inputs": [],
            "name": "getTransactionCount",
            "outputs": [
                {
                    "internalType": "uint256",
                    "name": "",
                    "type": "uint256"
                }
            ],
            "stateMutability": "view",
            "type": "function"
        },
        {
            "inputs": [
                {
                    "internalType": "address payable",
                    "name": "receiver",
                    "type": "address"
                },
                {
                    "internalType": "uint256",
                    "name": "amount",
                    "type": "uint256"
                },
                {
                    "internalType": "string",
                    "name": "message",
                    "type": "string"
                },
                {
                    "internalType": "string",
                    "name": "account",
                    "type": "string"
                },
                {
                    "internalType": "string",
                    "name": "keyword",
                    "type": "string"
                }
            ],
            "name": "transfer",
            "outputs": [],
            "stateMutability": "nonpayable",
            "type": "function"
        }
    ],
    "bytecode": "0x6080604052348015600f57600080fd5b50610f638061001f6000396000f3fe608060405234801561001057600080fd5b50600436106100415760003560e01c806327506f53146100465780632e7700f014610064578063754091e714610082575b600080fd5b61004e61009e565b60405161005b91906107ec565b60405180910390f35b61006c610373565b604051610079919061081d565b60405180910390f35b61009c600480360381019061009791906109eb565b61037c565b005b60606001805480602002602001604051908101604052809291908181526020016000905b8282101561036a57838290600052602060002090600702016040518060e00160405290816000820160009054906101000a900473ffffffffffffffffffffffffffffffffffffffff1673ffffffffffffffffffffffffffffffffffffffff1673ffffffffffffffffffffffffffffffffffffffff1681526020016001820160009054906101000a900473ffffffffffffffffffffffffffffffffffffffff1673ffffffffffffffffffffffffffffffffffffffff1673ffffffffffffffffffffffffffffffffffffffff168152602001600282015481526020016003820180546101ab90610ae9565b80601f01602080910402602001604051908101604052809291908181526020018280546101d790610ae9565b80156102245780601f106101f957610100808354040283529160200191610224565b820191906000526020600020905b81548152906001019060200180831161020757829003601f168201915b505050505081526020016004820154815260200160058201805461024790610ae9565b80601f016020809104026020016040519081016040528092919081815260200182805461027390610ae9565b80156102c05780601f10610295576101008083540402835291602001916102c0565b820191906000526020600020905b8154815290600101906020018083116102a357829003601f168201915b505050505081526020016006820180546102d990610ae9565b80601f016020809104026020016040519081016040528092919081815260200182805461030590610ae9565b80156103525780601f1061032757610100808354040283529160200191610352565b820191906000526020600020905b81548152906001019060200180831161033557829003601f168201915b505050505081525050815260200190600101906100c2565b50505050905090565b60008054905090565b600160008082825461038e9190610b49565b9250508190555060016040518060e001604052803373ffffffffffffffffffffffffffffffffffffffff1681526020018773ffffffffffffffffffffffffffffffffffffffff16815260200186815260200185815260200142815260200184815260200183815250908060018154018082558091505060019003906000526020600020906007020160009091909190915060008201518160000160006101000a81548173ffffffffffffffffffffffffffffffffffffffff021916908373ffffffffffffffffffffffffffffffffffffffff16021790555060208201518160010160006101000a81548173ffffffffffffffffffffffffffffffffffffffff021916908373ffffffffffffffffffffffffffffffffffffffff1602179055506040820151816002015560608201518160030190816104cc9190610d29565b506080820151816004015560a08201518160050190816104ec9190610d29565b5060c08201518160060190816105029190610d29565b5050507f21ec5b3f3e6c597e1a0d1650e5545618667a89bf7d7341cc53e38673d3dede32338686864287876040516105409796959493929190610ea9565b60405180910390a18473ffffffffffffffffffffffffffffffffffffffff166108fc859081150290604051600060405180830381858888f1935050505015801561058e573d6000803e3d6000fd5b505050505050565b600081519050919050565b600082825260208201905092915050565b6000819050602082019050919050565b600073ffffffffffffffffffffffffffffffffffffffff82169050919050565b60006105ed826105c2565b9050919050565b6105fd816105e2565b82525050565b6000819050919050565b61061681610603565b82525050565b600081519050919050565b600082825260208201905092915050565b60005b8381101561065657808201518184015260208101905061063b565b60008484015250505050565b6000601f19601f8301169050919050565b600061067e8261061c565b6106888185610627565b9350610698818560208601610638565b6106a181610662565b840191505092915050565b600060e0830160008301516106c460008601826105f4565b5060208301516106d760208601826105f4565b5060408301516106ea604086018261060d565b50606083015184820360608601526107028282610673565b9150506080830151610717608086018261060d565b5060a083015184820360a086015261072f8282610673565b91505060c083015184820360c08601526107498282610673565b9150508091505092915050565b600061076283836106ac565b905092915050565b6000602082019050919050565b600061078282610596565b61078c81856105a1565b93508360208202850161079e856105b2565b8060005b858110156107da57848403895281516107bb8582610756565b94506107c68361076a565b925060208a019950506001810190506107a2565b50829750879550505050505092915050565b600060208201905081810360008301526108068184610777565b905092915050565b61081781610603565b82525050565b6000602082019050610832600083018461080e565b92915050565b6000604051905090565b600080fd5b600080fd5b6000610857826105c2565b9050919050565b6108678161084c565b811461087257600080fd5b50565b6000813590506108848161085e565b92915050565b61089381610603565b811461089e57600080fd5b50565b6000813590506108b08161088a565b92915050565b600080fd5b600080fd5b7f4e487b7100000000000000000000000000000000000000000000000000000000600052604160045260246000fd5b6108f882610662565b810181811067ffffffffffffffff82111715610917576109166108c0565b5b80604052505050565b600061092a610838565b905061093682826108ef565b919050565b600067ffffffffffffffff821115610956576109556108c0565b5b61095f82610662565b9050602081019050919050565b82818337600083830152505050565b600061098e6109898461093b565b610920565b9050828152602081018484840111156109aa576109a96108bb565b5b6109b584828561096c565b509392505050565b600082601f8301126109d2576109d16108b6565b5b81356109e284826020860161097b565b91505092915050565b600080600080600060a08688031215610a0757610a06610842565b5b6000610a1588828901610875565b9550506020610a26888289016108a1565b945050604086013567ffffffffffffffff811115610a4757610a46610847565b5b610a53888289016109bd565b935050606086013567ffffffffffffffff811115610a7457610a73610847565b5b610a80888289016109bd565b925050608086013567ffffffffffffffff811115610aa157610aa0610847565b5b610aad888289016109bd565b9150509295509295909350565b7f4e487b7100000000000000000000000000000000000000000000000000000000600052602260045260246000fd5b60006002820490506001821680610b0157607f821691505b602082108103610b1457610b13610aba565b5b50919050565b7f4e487b7100000000000000000000000000000000000000000000000000000000600052601160045260246000fd5b6000610b5482610603565b9150610b5f83610603565b9250828201905080821115610b7757610b76610b1a565b5b92915050565b60008190508160005260206000209050919050565b60006020601f8301049050919050565b600082821b905092915050565b600060088302610bdf7fffffffffffffffffffffffffffffffffffffffffffffffffffffffffffffffff82610ba2565b610be98683610ba2565b95508019841693508086168417925050509392505050565b6000819050919050565b6000610c26610c21610c1c84610603565b610c01565b610603565b9050919050565b6000819050919050565b610c4083610c0b565b610c54610c4c82610c2d565b848454610baf565b825550505050565b600090565b610c69610c5c565b610c74818484610c37565b505050565b5b81811015610c9857610c8d600082610c61565b600181019050610c7a565b5050565b601f821115610cdd57610cae81610b7d565b610cb784610b92565b81016020851015610cc6578190505b610cda610cd285610b92565b830182610c79565b50505b505050565b600082821c905092915050565b6000610d0060001984600802610ce2565b1980831691505092915050565b6000610d198383610cef565b9150826002028217905092915050565b610d328261061c565b67ffffffffffffffff811115610d4b57610d4a6108c0565b5b610d558254610ae9565b610d60828285610c9c565b600060209050601f831160018114610d935760008415610d81578287015190505b610d8b8582610d0d565b865550610df3565b601f198416610da186610b7d565b60005b82811015610dc957848901518255600182019150602085019450602081019050610da4565b86831015610de65784890151610de2601f891682610cef565b8355505b6001600288020188555050505b505050505050565b610e04816105e2565b82525050565b6000610e25610e20610e1b846105c2565b610c01565b6105c2565b9050919050565b6000610e3782610e0a565b9050919050565b6000610e4982610e2c565b9050919050565b610e5981610e3e565b82525050565b600082825260208201905092915050565b6000610e7b8261061c565b610e858185610e5f565b9350610e95818560208601610638565b610e9e81610662565b840191505092915050565b600060e082019050610ebe600083018a610dfb565b610ecb6020830189610e50565b610ed8604083018861080e565b8181036060830152610eea8187610e70565b9050610ef9608083018661080e565b81810360a0830152610f0b8185610e70565b905081810360c0830152610f1f8184610e70565b90509897505050505050505056fea26469706673582212205178f423eda8df666c11d9a82ec21d24be59e63b13165ae6d9458eba7ee0e9e964736f6c634300081c0033",
    "linkReferences": {},
    "deployedLinkReferences": {}
}